:10C000005542200135D0085A82451A0231400004B9
:10C010003F4004000F93082492421A0220012F830C
:10C020009F4FDAC10002F8233F4016000F93072408
:10C0300092421A0220011F83CF430402F923B01257
:10C040002CC1B0126CC0B0127AC03F4000000F93F8
:10C050000524B0120000B0127AC0FB3FB0127AC0C3
:10C06000FD3F32D0F000FD3F3040D8C1F2404100EA
:10C070002200F240410021003041B01244C10C4E78
:10C080000D4F1C8204021D720602829D02020728C7
:10C090001D920202012C3041829C0002FC2F824E34
:10C0A0000402824F0602F2E0410021003041F2F02A
:10C0B000FEFF5300F2F0FDFF02003E4029003F402A
:10C0C00080B01F83FE231E83FC2303433D400300F7
:10C0D0005F4202002FF31B24F2F0FEFF5300F2F048
:10C0E000FDFF02003E4029003F4080B01F83FE2339
:10C0F0001E83FC2303433D53EB23B240E02E080292
:10C10000F2F03F002E00F2D02000530030413041C9
:10C11000D242F9105700D242F8105600D2425800CD
:10C120005800B012AEC0B012AEC03041B240805A1A
:10C130002001B01210C1B240195A2001D2D3000020
:10C1400032D230410D4232C203431E420E021F4220
:10C150001002024D30410F120E120D120C120B1272
:10C160001E420E021F4210021B420C025D420A02D6
:10C170004D932F241C4216020D430E5C0F6D5D4241
:10C180000A024D9323241D4218020D5B3D90E803E3
:10C1900004283D5018FC1E530F63824D0C02824E42
:10C1A0000E02824F10021E4212021F4214021E5340
:10C1B0000F63824E1202824F1402B1C0D0000A00F7
:10C1C0003B413C413D413E413F4100133D40000267
:0AC1D000DC3F0C430D43D13F001388
:04C1DA00BC020000A3
:10FFE00068C068C068C068C068C068C068C068C0D1
:10FFF00068C068C056C168C068C068C068C000C03A
:040000030000C00039
:00000001FF
